{
  "_format": "hh-sol-artifact-1",
  "contractName": "DopeWolvesNFT",
  "sourceName": "contracts/DopeWolvesNFT.sol",
  "abi": [
    {
      "inputs": [
        {
          "internalType": "string",
          "name": "_name",
          "type": "string"
        },
        {
          "internalType": "string",
          "name": "_symbol",
          "type": "string"
        },
        {
          "internalType": "string",
          "name": "_initBaseURI",
          "type": "string"
        }
      ],
      "stateMutability": "nonpayable",
      "type": "constructor"
    },
    {
      "anonymous": false,
      "inputs": [
        {
          "indexed": true,
          "internalType": "address",
          "name": "owner",
          "type": "address"
        },
        {
          "indexed": true,
          "internalType": "address",
          "name": "approved",
          "type": "address"
        },
        {
          "indexed": true,
          "internalType": "uint256",
          "name": "tokenId",
          "type": "uint256"
        }
      ],
      "name": "Approval",
      "type": "event"
    },
    {
      "anonymous": false,
      "inputs": [
        {
          "indexed": true,
          "internalType": "address",
          "name": "owner",
          "type": "address"
        },
        {
          "indexed": true,
          "internalType": "address",
          "name": "operator",
          "type": "address"
        },
        {
          "indexed": false,
          "internalType": "bool",
          "name": "approved",
          "type": "bool"
        }
      ],
      "name": "ApprovalForAll",
      "type": "event"
    },
    {
      "anonymous": false,
      "inputs": [
        {
          "indexed": true,
          "internalType": "address",
          "name": "previousOwner",
          "type": "address"
        },
        {
          "indexed": true,
          "internalType": "address",
          "name": "newOwner",
          "type": "address"
        }
      ],
      "name": "OwnershipTransferred",
      "type": "event"
    },
    {
      "anonymous": false,
      "inputs": [
        {
          "indexed": true,
          "internalType": "address",
          "name": "from",
          "type": "address"
        },
        {
          "indexed": true,
          "internalType": "address",
          "name": "to",
          "type": "address"
        },
        {
          "indexed": true,
          "internalType": "uint256",
          "name": "tokenId",
          "type": "uint256"
        }
      ],
      "name": "Transfer",
      "type": "event"
    },
    {
      "inputs": [
        {
          "internalType": "address[100]",
          "name": "_users",
          "type": "address[100]"
        }
      ],
      "name": "add100PresaleUsers",
      "outputs": [],
      "stateMutability": "nonpayable",
      "type": "function"
    },
    {
      "inputs": [
        {
          "internalType": "address",
          "name": "_user",
          "type": "address"
        }
      ],
      "name": "addPresaleUser",
      "outputs": [],
      "stateMutability": "nonpayable",
      "type": "function"
    },
    {
      "inputs": [
        {
          "internalType": "address",
          "name": "to",
          "type": "address"
        },
        {
          "internalType": "uint256",
          "name": "tokenId",
          "type": "uint256"
        }
      ],
      "name": "approve",
      "outputs": [],
      "stateMutability": "nonpayable",
      "type": "function"
    },
    {
      "inputs": [
        {
          "internalType": "address",
          "name": "owner",
          "type": "address"
        }
      ],
      "name": "balanceOf",
      "outputs": [
        {
          "internalType": "uint256",
          "name": "",
          "type": "uint256"
        }
      ],
      "stateMutability": "view",
      "type": "function"
    },
    {
      "inputs": [],
      "name": "baseExtension",
      "outputs": [
        {
          "internalType": "string",
          "name": "",
          "type": "string"
        }
      ],
      "stateMutability": "view",
      "type": "function"
    },
    {
      "inputs": [],
      "name": "baseURI",
      "outputs": [
        {
          "internalType": "string",
          "name": "",
          "type": "string"
        }
      ],
      "stateMutability": "view",
      "type": "function"
    },
    {
      "inputs": [],
      "name": "cost",
      "outputs": [
        {
          "internalType": "uint256",
          "name": "",
          "type": "uint256"
        }
      ],
      "stateMutability": "view",
      "type": "function"
    },
    {
      "inputs": [
        {
          "internalType": "uint256",
          "name": "tokenId",
          "type": "uint256"
        }
      ],
      "name": "getApproved",
      "outputs": [
        {
          "internalType": "address",
          "name": "",
          "type": "address"
        }
      ],
      "stateMutability": "view",
      "type": "function"
    },
    {
      "inputs": [
        {
          "internalType": "address",
          "name": "owner",
          "type": "address"
        },
        {
          "internalType": "address",
          "name": "operator",
          "type": "address"
        }
      ],
      "name": "isApprovedForAll",
      "outputs": [
        {
          "internalType": "bool",
          "name": "",
          "type": "bool"
        }
      ],
      "stateMutability": "view",
      "type": "function"
    },
    {
      "inputs": [],
      "name": "maxMintAmount",
      "outputs": [
        {
          "internalType": "uint256",
          "name": "",
          "type": "uint256"
        }
      ],
      "stateMutability": "view",
      "type": "function"
    },
    {
      "inputs": [],
      "name": "maxSupply",
      "outputs": [
        {
          "internalType": "uint256",
          "name": "",
          "type": "uint256"
        }
      ],
      "stateMutability": "view",
      "type": "function"
    },
    {
      "inputs": [
        {
          "internalType": "address",
          "name": "_to",
          "type": "address"
        },
        {
          "internalType": "uint256",
          "name": "_mintAmount",
          "type": "uint256"
        }
      ],
      "name": "mint",
      "outputs": [],
      "stateMutability": "payable",
      "type": "function"
    },
    {
      "inputs": [],
      "name": "name",
      "outputs": [
        {
          "internalType": "string",
          "name": "",
          "type": "string"
        }
      ],
      "stateMutability": "view",
      "type": "function"
    },
    {
      "inputs": [],
      "name": "owner",
      "outputs": [
        {
          "internalType": "address",
          "name": "",
          "type": "address"
        }
      ],
      "stateMutability": "view",
      "type": "function"
    },
    {
      "inputs": [
        {
          "internalType": "uint256",
          "name": "tokenId",
          "type": "uint256"
        }
      ],
      "name": "ownerOf",
      "outputs": [
        {
          "internalType": "address",
          "name": "",
          "type": "address"
        }
      ],
      "stateMutability": "view",
      "type": "function"
    },
    {
      "inputs": [
        {
          "internalType": "bool",
          "name": "_state",
          "type": "bool"
        }
      ],
      "name": "pause",
      "outputs": [],
      "stateMutability": "nonpayable",
      "type": "function"
    },
    {
      "inputs": [],
      "name": "paused",
      "outputs": [
        {
          "internalType": "bool",
          "name": "",
          "type": "bool"
        }
      ],
      "stateMutability": "view",
      "type": "function"
    },
    {
      "inputs": [],
      "name": "presaleCost",
      "outputs": [
        {
          "internalType": "uint256",
          "name": "",
          "type": "uint256"
        }
      ],
      "stateMutability": "view",
      "type": "function"
    },
    {
      "inputs": [
        {
          "internalType": "address",
          "name": "",
          "type": "address"
        }
      ],
      "name": "presaleWallets",
      "outputs": [
        {
          "internalType": "bool",
          "name": "",
          "type": "bool"
        }
      ],
      "stateMutability": "view",
      "type": "function"
    },
    {
      "inputs": [
        {
          "internalType": "address",
          "name": "_user",
          "type": "address"
        }
      ],
      "name": "removePresaleUser",
      "outputs": [],
      "stateMutability": "nonpayable",
      "type": "function"
    },
    {
      "inputs": [
        {
          "internalType": "address",
          "name": "_user",
          "type": "address"
        }
      ],
      "name": "removeWhitelistUser",
      "outputs": [],
      "stateMutability": "nonpayable",
      "type": "function"
    },
    {
      "inputs": [],
      "name": "renounceOwnership",
      "outputs": [],
      "stateMutability": "nonpayable",
      "type": "function"
    },
    {
      "inputs": [
        {
          "internalType": "address",
          "name": "from",
          "type": "address"
        },
        {
          "internalType": "address",
          "name": "to",
          "type": "address"
        },
        {
          "internalType": "uint256",
          "name": "tokenId",
          "type": "uint256"
        }
      ],
      "name": "safeTransferFrom",
      "outputs": [],
      "stateMutability": "nonpayable",
      "type": "function"
    },
    {
      "inputs": [
        {
          "internalType": "address",
          "name": "from",
          "type": "address"
        },
        {
          "internalType": "address",
          "name": "to",
          "type": "address"
        },
        {
          "internalType": "uint256",
          "name": "tokenId",
          "type": "uint256"
        },
        {
          "internalType": "bytes",
          "name": "_data",
          "type": "bytes"
        }
      ],
      "name": "safeTransferFrom",
      "outputs": [],
      "stateMutability": "nonpayable",
      "type": "function"
    },
    {
      "inputs": [
        {
          "internalType": "address",
          "name": "operator",
          "type": "address"
        },
        {
          "internalType": "bool",
          "name": "approved",
          "type": "bool"
        }
      ],
      "name": "setApprovalForAll",
      "outputs": [],
      "stateMutability": "nonpayable",
      "type": "function"
    },
    {
      "inputs": [
        {
          "internalType": "string",
          "name": "_newBaseExtension",
          "type": "string"
        }
      ],
      "name": "setBaseExtension",
      "outputs": [],
      "stateMutability": "nonpayable",
      "type": "function"
    },
    {
      "inputs": [
        {
          "internalType": "string",
          "name": "_newBaseURI",
          "type": "string"
        }
      ],
      "name": "setBaseURI",
      "outputs": [],
      "stateMutability": "nonpayable",
      "type": "function"
    },
    {
      "inputs": [
        {
          "internalType": "uint256",
          "name": "_newCost",
          "type": "uint256"
        }
      ],
      "name": "setCost",
      "outputs": [],
      "stateMutability": "nonpayable",
      "type": "function"
    },
    {
      "inputs": [
        {
          "internalType": "uint256",
          "name": "_newCost",
          "type": "uint256"
        }
      ],
      "name": "setPresaleCost",
      "outputs": [],
      "stateMutability": "nonpayable",
      "type": "function"
    },
    {
      "inputs": [
        {
          "internalType": "uint256",
          "name": "_newmaxMintAmount",
          "type": "uint256"
        }
      ],
      "name": "setmaxMintAmount",
      "outputs": [],
      "stateMutability": "nonpayable",
      "type": "function"
    },
    {
      "inputs": [
        {
          "internalType": "bytes4",
          "name": "interfaceId",
          "type": "bytes4"
        }
      ],
      "name": "supportsInterface",
      "outputs": [
        {
          "internalType": "bool",
          "name": "",
          "type": "bool"
        }
      ],
      "stateMutability": "view",
      "type": "function"
    },
    {
      "inputs": [],
      "name": "symbol",
      "outputs": [
        {
          "internalType": "string",
          "name": "",
          "type": "string"
        }
      ],
      "stateMutability": "view",
      "type": "function"
    },
    {
      "inputs": [
        {
          "internalType": "uint256",
          "name": "index",
          "type": "uint256"
        }
      ],
      "name": "tokenByIndex",
      "outputs": [
        {
          "internalType": "uint256",
          "name": "",
          "type": "uint256"
        }
      ],
      "stateMutability": "view",
      "type": "function"
    },
    {
      "inputs": [
        {
          "internalType": "address",
          "name": "owner",
          "type": "address"
        },
        {
          "internalType": "uint256",
          "name": "index",
          "type": "uint256"
        }
      ],
      "name": "tokenOfOwnerByIndex",
      "outputs": [
        {
          "internalType": "uint256",
          "name": "",
          "type": "uint256"
        }
      ],
      "stateMutability": "view",
      "type": "function"
    },
    {
      "inputs": [
        {
          "internalType": "uint256",
          "name": "tokenId",
          "type": "uint256"
        }
      ],
      "name": "tokenURI",
      "outputs": [
        {
          "internalType": "string",
          "name": "",
          "type": "string"
        }
      ],
      "stateMutability": "view",
      "type": "function"
    },
    {
      "inputs": [],
      "name": "totalSupply",
      "outputs": [
        {
          "internalType": "uint256",
          "name": "",
          "type": "uint256"
        }
      ],
      "stateMutability": "view",
      "type": "function"
    },
    {
      "inputs": [
        {
          "internalType": "address",
          "name": "from",
          "type": "address"
        },
        {
          "internalType": "address",
          "name": "to",
          "type": "address"
        },
        {
          "internalType": "uint256",
          "name": "tokenId",
          "type": "uint256"
        }
      ],
      "name": "transferFrom",
      "outputs": [],
      "stateMutability": "nonpayable",
      "type": "function"
    },
    {
      "inputs": [
        {
          "internalType": "address",
          "name": "newOwner",
          "type": "address"
        }
      ],
      "name": "transferOwnership",
      "outputs": [],
      "stateMutability": "nonpayable",
      "type": "function"
    },
    {
      "inputs": [
        {
          "internalType": "address",
          "name": "_owner",
          "type": "address"
        }
      ],
      "name": "walletOfOwner",
      "outputs": [
        {
          "internalType": "uint256[]",
          "name": "",
          "type": "uint256[]"
        }
      ],
      "stateMutability": "view",
      "type": "function"
    },
    {
      "inputs": [
        {
          "internalType": "address",
          "name": "_user",
          "type": "address"
        }
      ],
      "name": "whitelistUser",
      "outputs": [],
      "stateMutability": "nonpayable",
      "type": "function"
    },
    {
      "inputs": [
        {
          "internalType": "address",
          "name": "",
          "type": "address"
        }
      ],
      "name": "whitelisted",
      "outputs": [
        {
          "internalType": "bool",
          "name": "",
          "type": "bool"
        }
      ],
      "stateMutability": "view",
      "type": "function"
    },
    {
      "inputs": [],
      "name": "withdraw",
      "outputs": [],
      "stateMutability": "payable",
      "type": "function"
    }
  ],
  "bytecode": "0x60c06040526005608081905264173539b7b760d91b60a09081526200002891600c919062000990565b506810357563d481cc0000600d55680d7f91b4bdd0440000600e556122b8600f9081556010556011805460ff191690553480156200006557600080fd5b506040516200344738038062003447833981016040819052620000889162000af6565b825183908390620000a190600090602085019062000990565b508051620000b790600190602084019062000990565b505050620000d4620000ce620000f560201b60201c565b620000f9565b620000df816200014b565b620000ec33600f620001c4565b50505062000ce6565b3390565b600a80546001600160a01b038381166001600160a01b0319831681179093556040519116919082907f8be0079c531659141344cd1fd0a4f28419497f9722a3daafe3b4186f6b6457e090600090a35050565b600a546001600160a01b03163314620001ab5760405162461bcd60e51b815260206004820181905260248201527f4f776e61626c653a2063616c6c6572206973206e6f7420746865206f776e657260448201526064015b60405180910390fd5b8051620001c090600b90602084019062000990565b5050565b6000620001d060085490565b60115490915060ff1615620001e457600080fd5b60008211620001f257600080fd5b6010548211156200020257600080fd5b600f5462000211838362000bd9565b11156200021d57600080fd5b600a546001600160a01b03163314620002aa573360009081526012602052604090205460ff161515600114620002aa573360009081526013602052604090205460ff1615156001146200028d5781600d546200027a919062000bf4565b3410156200028757600080fd5b620002aa565b81600e546200029d919062000bf4565b341015620002aa57600080fd5b60015b828111620002e157620002cc84620002c6838562000bd9565b620002e7565b80620002d88162000c9c565b915050620002ad565b50505050565b620001c08282604051806020016040528060008152506200030960201b60201c565b62000315838362000381565b620003246000848484620004d7565b6200037c5760405162461bcd60e51b815260206004820152603260248201526000805160206200342783398151915260448201527131b2b4bb32b91034b6b83632b6b2b73a32b960711b6064820152608401620001a2565b505050565b6001600160a01b038216620003d95760405162461bcd60e51b815260206004820181905260248201527f4552433732313a206d696e7420746f20746865207a65726f20616464726573736044820152606401620001a2565b6000818152600260205260409020546001600160a01b031615620004405760405162461bcd60e51b815260206004820152601c60248201527f4552433732313a20746f6b656e20616c7265616479206d696e746564000000006044820152606401620001a2565b6200044e6000838362000640565b6001600160a01b03821660009081526003602052604081208054600192906200047990849062000bd9565b909155505060008181526002602052604080822080546001600160a01b0319166001600160a01b03861690811790915590518392907fddf252ad1be2c89b69c2b068fc378daa952ba7f163c4a11628f55a4df523b3ef908290a45050565b6000620004f8846001600160a01b03166200071c60201b620014861760201c565b156200063457604051630a85bd0160e11b81526001600160a01b0385169063150b7a02906200053290339089908890889060040162000b83565b602060405180830381600087803b1580156200054d57600080fd5b505af192505050801562000580575060408051601f3d908101601f191682019092526200057d9181019062000ac5565b60015b62000619573d808015620005b1576040519150601f19603f3d011682016040523d82523d6000602084013e620005b6565b606091505b508051620006115760405162461bcd60e51b815260206004820152603260248201526000805160206200342783398151915260448201527131b2b4bb32b91034b6b83632b6b2b73a32b960711b6064820152608401620001a2565b805181602001fd5b6001600160e01b031916630a85bd0160e11b14905062000638565b5060015b949350505050565b620006588383836200037c60201b62000a481760201c565b6001600160a01b038316620006b657620006b081600880546000838152600960205260408120829055600182018355919091527ff3f7a9fe364faab93b216da50a3214154f22a0a2b415b23a84c8169e8b636ee30155565b620006dc565b816001600160a01b0316836001600160a01b031614620006dc57620006dc83826200072b565b6001600160a01b038216620006f6576200037c81620007d8565b826001600160a01b0316826001600160a01b0316146200037c576200037c8282620008b6565b6001600160a01b03163b151590565b6000600162000745846200090760201b620010c61760201c565b62000751919062000c16565b600083815260076020526040902054909150808214620007a5576001600160a01b03841660009081526006602090815260408083208584528252808320548484528184208190558352600790915290208190555b5060009182526007602090815260408084208490556001600160a01b039094168352600681528383209183525290812055565b600854600090620007ec9060019062000c16565b600083815260096020526040812054600880549394509092849081106200082357634e487b7160e01b600052603260045260246000fd5b9060005260206000200154905080600883815481106200085357634e487b7160e01b600052603260045260246000fd5b60009182526020808320909101929092558281526009909152604080822084905585825281205560088054806200089a57634e487b7160e01b600052603160045260246000fd5b6001900381819060005260206000200160009055905550505050565b6000620008ce836200090760201b620010c61760201c565b6001600160a01b039093166000908152600660209081526040808320868452825280832085905593825260079052919091209190915550565b60006001600160a01b038216620009745760405162461bcd60e51b815260206004820152602a60248201527f4552433732313a2062616c616e636520717565727920666f7220746865207a65604482015269726f206164647265737360b01b6064820152608401620001a2565b506001600160a01b031660009081526003602052604090205490565b8280546200099e9062000c5f565b90600052602060002090601f016020900481019282620009c2576000855562000a0d565b82601f10620009dd57805160ff191683800117855562000a0d565b8280016001018555821562000a0d579182015b8281111562000a0d578251825591602001919060010190620009f0565b5062000a1b92915062000a1f565b5090565b5b8082111562000a1b576000815560010162000a20565b600082601f83011262000a47578081fd5b81516001600160401b038082111562000a645762000a6462000cd0565b604051601f8301601f19908116603f0116810190828211818310171562000a8f5762000a8f62000cd0565b8160405283815286602085880101111562000aa8578485fd5b62000abb84602083016020890162000c30565b9695505050505050565b60006020828403121562000ad7578081fd5b81516001600160e01b03198116811462000aef578182fd5b9392505050565b60008060006060848603121562000b0b578182fd5b83516001600160401b038082111562000b22578384fd5b62000b308783880162000a36565b9450602086015191508082111562000b46578384fd5b62000b548783880162000a36565b9350604086015191508082111562000b6a578283fd5b5062000b798682870162000a36565b9150509250925092565b600060018060a01b03808716835280861660208401525083604083015260806060830152825180608084015262000bc28160a085016020870162000c30565b601f01601f19169190910160a00195945050505050565b6000821982111562000bef5762000bef62000cba565b500190565b600081600019048311821515161562000c115762000c1162000cba565b500290565b60008282101562000c2b5762000c2b62000cba565b500390565b60005b8381101562000c4d57818101518382015260200162000c33565b83811115620002e15750506000910152565b600181811c9082168062000c7457607f821691505b6020821081141562000c9657634e487b7160e01b600052602260045260246000fd5b50919050565b600060001982141562000cb35762000cb362000cba565b5060010190565b634e487b7160e01b600052601160045260246000fd5b634e487b7160e01b600052604160045260246000fd5b6127318062000cf66000396000f3fe6080604052600436106102515760003560e01c806355f804b311610139578063a22cb465116100b6578063d5abeb011161007a578063d5abeb01146106b0578063d936547e146106c6578063da3ef23f146106f6578063e985e9c514610716578063ed931e171461075f578063f2fde38b1461077f57600080fd5b8063a22cb4651461061b578063b2f3e85e1461063b578063b88d4fde1461065b578063c66828621461067b578063c87b56dd1461069057600080fd5b8063715018a6116100fd578063715018a6146105935780637f00c7a6146105a85780638da5cb5b146105c85780638fdcf942146105e657806395d89b411461060657600080fd5b806355f804b3146105045780635c975abb146105245780636352211e1461053e5780636c0360eb1461055e57806370a082311461057357600080fd5b80632f745c59116101d257806342842e0e1161019657806342842e0e14610437578063438b63001461045757806344a0d68a146104845780634a4c560d146104a45780634f6ccce7146104c4578063546857c7146104e457600080fd5b80632f745c59146103ac57806330b2264e146103cc57806330cc7ae0146103fc5780633ccfd60b1461041c57806340c10f191461042457600080fd5b806313faede61161021957806313faede61461032757806318160ddd1461034b578063239c70ae1461036057806323b872dd146103765780632a23d07d1461039657600080fd5b806301ffc9a71461025657806302329a291461028b57806306fdde03146102ad578063081812fc146102cf578063095ea7b314610307575b600080fd5b34801561026257600080fd5b506102766102713660046122bb565b61079f565b60405190151581526020015b60405180910390f35b34801561029757600080fd5b506102ab6102a63660046122a1565b6107ca565b005b3480156102b957600080fd5b506102c2610810565b60405161028291906124c0565b3480156102db57600080fd5b506102ef6102ea366004612339565b6108a2565b6040516001600160a01b039091168152602001610282565b34801561031357600080fd5b506102ab6103223660046121ec565b610937565b34801561033357600080fd5b5061033d600d5481565b604051908152602001610282565b34801561035757600080fd5b5060085461033d565b34801561036c57600080fd5b5061033d60105481565b34801561038257600080fd5b506102ab61039136600461210f565b610a4d565b3480156103a257600080fd5b5061033d600e5481565b3480156103b857600080fd5b5061033d6103c73660046121ec565b610a7e565b3480156103d857600080fd5b506102766103e73660046120c3565b60136020526000908152604090205460ff1681565b34801561040857600080fd5b506102ab6104173660046120c3565b610b14565b6102ab610b5f565b6102ab6104323660046121ec565b610be1565b34801561044357600080fd5b506102ab61045236600461210f565b610ceb565b34801561046357600080fd5b506104776104723660046120c3565b610d06565b604051610282919061247c565b34801561049057600080fd5b506102ab61049f366004612339565b610dc4565b3480156104b057600080fd5b506102ab6104bf3660046120c3565b610df3565b3480156104d057600080fd5b5061033d6104df366004612339565b610e41565b3480156104f057600080fd5b506102ab6104ff366004612215565b610ee2565b34801561051057600080fd5b506102ab61051f3660046122f3565b610f84565b34801561053057600080fd5b506011546102769060ff1681565b34801561054a57600080fd5b506102ef610559366004612339565b610fc1565b34801561056a57600080fd5b506102c2611038565b34801561057f57600080fd5b5061033d61058e3660046120c3565b6110c6565b34801561059f57600080fd5b506102ab61114d565b3480156105b457600080fd5b506102ab6105c3366004612339565b611183565b3480156105d457600080fd5b50600a546001600160a01b03166102ef565b3480156105f257600080fd5b506102ab610601366004612339565b6111b2565b34801561061257600080fd5b506102c26111e1565b34801561062757600080fd5b506102ab6106363660046121c3565b6111f0565b34801561064757600080fd5b506102ab6106563660046120c3565b6111fb565b34801561066757600080fd5b506102ab61067636600461214a565b611249565b34801561068757600080fd5b506102c261127b565b34801561069c57600080fd5b506102c26106ab366004612339565b611288565b3480156106bc57600080fd5b5061033d600f5481565b3480156106d257600080fd5b506102766106e13660046120c3565b60126020526000908152604090205460ff1681565b34801561070257600080fd5b506102ab6107113660046122f3565b611366565b34801561072257600080fd5b506102766107313660046120dd565b6001600160a01b03918216600090815260056020908152604080832093909416825291909152205460ff1690565b34801561076b57600080fd5b506102ab61077a3660046120c3565b6113a3565b34801561078b57600080fd5b506102ab61079a3660046120c3565b6113ee565b60006001600160e01b0319821663780e9d6360e01b14806107c457506107c482611495565b92915050565b600a546001600160a01b031633146107fd5760405162461bcd60e51b81526004016107f490612525565b60405180910390fd5b6011805460ff1916911515919091179055565b60606000805461081f90612639565b80601f016020809104026020016040519081016040528092919081815260200182805461084b90612639565b80156108985780601f1061086d57610100808354040283529160200191610898565b820191906000526020600020905b81548152906001019060200180831161087b57829003601f168201915b5050505050905090565b6000818152600260205260408120546001600160a01b031661091b5760405162461bcd60e51b815260206004820152602c60248201527f4552433732313a20617070726f76656420717565727920666f72206e6f6e657860448201526b34b9ba32b73a103a37b5b2b760a11b60648201526084016107f4565b506000908152600460205260409020546001600160a01b031690565b600061094282610fc1565b9050806001600160a01b0316836001600160a01b031614156109b05760405162461bcd60e51b815260206004820152602160248201527f4552433732313a20617070726f76616c20746f2063757272656e74206f776e656044820152603960f91b60648201526084016107f4565b336001600160a01b03821614806109cc57506109cc8133610731565b610a3e5760405162461bcd60e51b815260206004820152603860248201527f4552433732313a20617070726f76652063616c6c6572206973206e6f74206f7760448201527f6e6572206e6f7220617070726f76656420666f7220616c6c000000000000000060648201526084016107f4565b610a4883836114e5565b505050565b610a573382611553565b610a735760405162461bcd60e51b81526004016107f49061255a565b610a4883838361164a565b6000610a89836110c6565b8210610aeb5760405162461bcd60e51b815260206004820152602b60248201527f455243373231456e756d657261626c653a206f776e657220696e646578206f7560448201526a74206f6620626f756e647360a81b60648201526084016107f4565b506001600160a01b03919091166000908152600660209081526040808320938352929052205490565b600a546001600160a01b03163314610b3e5760405162461bcd60e51b81526004016107f490612525565b6001600160a01b03166000908152601260205260409020805460ff19169055565b600a546001600160a01b03163314610b895760405162461bcd60e51b81526004016107f490612525565b604051600090339047908381818185875af1925050503d8060008114610bcb576040519150601f19603f3d011682016040523d82523d6000602084013e610bd0565b606091505b5050905080610bde57600080fd5b50565b6000610bec60085490565b60115490915060ff1615610bff57600080fd5b60008211610c0c57600080fd5b601054821115610c1b57600080fd5b600f54610c2883836125ab565b1115610c3357600080fd5b600a546001600160a01b03163314610cb6573360009081526012602052604090205460ff161515600114610cb6573360009081526013602052604090205460ff161515600114610c9c5781600d54610c8b91906125d7565b341015610c9757600080fd5b610cb6565b81600e54610caa91906125d7565b341015610cb657600080fd5b60015b828111610ce557610cd384610cce83856125ab565b6117f1565b80610cdd81612674565b915050610cb9565b50505050565b610a4883838360405180602001604052806000815250611249565b60606000610d13836110c6565b905060008167ffffffffffffffff811115610d3e57634e487b7160e01b600052604160045260246000fd5b604051908082528060200260200182016040528015610d67578160200160208202803683370190505b50905060005b82811015610dbc57610d7f8582610a7e565b828281518110610d9f57634e487b7160e01b600052603260045260246000fd5b602090810291909101015280610db481612674565b915050610d6d565b509392505050565b600a546001600160a01b03163314610dee5760405162461bcd60e51b81526004016107f490612525565b600d55565b600a546001600160a01b03163314610e1d5760405162461bcd60e51b81526004016107f490612525565b6001600160a01b03166000908152601260205260409020805460ff19166001179055565b6000610e4c60085490565b8210610eaf5760405162461bcd60e51b815260206004820152602c60248201527f455243373231456e756d657261626c653a20676c6f62616c20696e646578206f60448201526b7574206f6620626f756e647360a01b60648201526084016107f4565b60088281548110610ed057634e487b7160e01b600052603260045260246000fd5b90600052602060002001549050919050565b600a546001600160a01b03163314610f0c5760405162461bcd60e51b81526004016107f490612525565b60005b6002811015610f8057600160136000848460648110610f3e57634e487b7160e01b600052603260045260246000fd5b602090810291909101516001600160a01b03168252810191909152604001600020805460ff191691151591909117905580610f7881612674565b915050610f0f565b5050565b600a546001600160a01b03163314610fae5760405162461bcd60e51b81526004016107f490612525565b8051610f8090600b906020840190611f88565b6000818152600260205260408120546001600160a01b0316806107c45760405162461bcd60e51b815260206004820152602960248201527f4552433732313a206f776e657220717565727920666f72206e6f6e657869737460448201526832b73a103a37b5b2b760b91b60648201526084016107f4565b600b805461104590612639565b80601f016020809104026020016040519081016040528092919081815260200182805461107190612639565b80156110be5780601f10611093576101008083540402835291602001916110be565b820191906000526020600020905b8154815290600101906020018083116110a157829003601f168201915b505050505081565b60006001600160a01b0382166111315760405162461bcd60e51b815260206004820152602a60248201527f4552433732313a2062616c616e636520717565727920666f7220746865207a65604482015269726f206164647265737360b01b60648201526084016107f4565b506001600160a01b031660009081526003602052604090205490565b600a546001600160a01b031633146111775760405162461bcd60e51b81526004016107f490612525565b611181600061180b565b565b600a546001600160a01b031633146111ad5760405162461bcd60e51b81526004016107f490612525565b601055565b600a546001600160a01b031633146111dc5760405162461bcd60e51b81526004016107f490612525565b600e55565b60606001805461081f90612639565b610f8033838361185d565b600a546001600160a01b031633146112255760405162461bcd60e51b81526004016107f490612525565b6001600160a01b03166000908152601360205260409020805460ff19166001179055565b6112533383611553565b61126f5760405162461bcd60e51b81526004016107f49061255a565b610ce58484848461192c565b600c805461104590612639565b6000818152600260205260409020546060906001600160a01b03166113075760405162461bcd60e51b815260206004820152602f60248201527f4552433732314d657461646174613a2055524920717565727920666f72206e6f60448201526e3732bc34b9ba32b73a103a37b5b2b760891b60648201526084016107f4565b600061131161195f565b90506000815111611331576040518060200160405280600081525061135f565b8061133b8461196e565b600c60405160200161134f9392919061237d565b6040516020818303038152906040525b9392505050565b600a546001600160a01b031633146113905760405162461bcd60e51b81526004016107f490612525565b8051610f8090600c906020840190611f88565b600a546001600160a01b031633146113cd5760405162461bcd60e51b81526004016107f490612525565b6001600160a01b03166000908152601360205260409020805460ff19169055565b600a546001600160a01b031633146114185760405162461bcd60e51b81526004016107f490612525565b6001600160a01b03811661147d5760405162461bcd60e51b815260206004820152602660248201527f4f776e61626c653a206e6577206f776e657220697320746865207a65726f206160448201526564647265737360d01b60648201526084016107f4565b610bde8161180b565b6001600160a01b03163b151590565b60006001600160e01b031982166380ac58cd60e01b14806114c657506001600160e01b03198216635b5e139f60e01b145b806107c457506301ffc9a760e01b6001600160e01b03198316146107c4565b600081815260046020526040902080546001600160a01b0319166001600160a01b038416908117909155819061151a82610fc1565b6001600160a01b03167f8c5be1e5ebec7d5bd14f71427d1e84f3dd0314c0f7b2291e5b200ac8c7c3b92560405160405180910390a45050565b6000818152600260205260408120546001600160a01b03166115cc5760405162461bcd60e51b815260206004820152602c60248201527f4552433732313a206f70657261746f7220717565727920666f72206e6f6e657860448201526b34b9ba32b73a103a37b5b2b760a11b60648201526084016107f4565b60006115d783610fc1565b9050806001600160a01b0316846001600160a01b031614806116125750836001600160a01b0316611607846108a2565b6001600160a01b0316145b8061164257506001600160a01b0380821660009081526005602090815260408083209388168352929052205460ff165b949350505050565b826001600160a01b031661165d82610fc1565b6001600160a01b0316146116c15760405162461bcd60e51b815260206004820152602560248201527f4552433732313a207472616e736665722066726f6d20696e636f72726563742060448201526437bbb732b960d91b60648201526084016107f4565b6001600160a01b0382166117235760405162461bcd60e51b8152602060048201526024808201527f4552433732313a207472616e7366657220746f20746865207a65726f206164646044820152637265737360e01b60648201526084016107f4565b61172e838383611a88565b6117396000826114e5565b6001600160a01b03831660009081526003602052604081208054600192906117629084906125f6565b90915550506001600160a01b03821660009081526003602052604081208054600192906117909084906125ab565b909155505060008181526002602052604080822080546001600160a01b0319166001600160a01b0386811691821790925591518493918716917fddf252ad1be2c89b69c2b068fc378daa952ba7f163c4a11628f55a4df523b3ef91a4505050565b610f80828260405180602001604052806000815250611b40565b600a80546001600160a01b038381166001600160a01b0319831681179093556040519116919082907f8be0079c531659141344cd1fd0a4f28419497f9722a3daafe3b4186f6b6457e090600090a35050565b816001600160a01b0316836001600160a01b031614156118bf5760405162461bcd60e51b815260206004820152601960248201527f4552433732313a20617070726f766520746f2063616c6c65720000000000000060448201526064016107f4565b6001600160a01b03838116600081815260056020908152604080832094871680845294825291829020805460ff191686151590811790915591519182527f17307eab39ab6107e8899845ad3d59bd9653f200f220920489ca2b5937696c31910160405180910390a3505050565b61193784848461164a565b61194384848484611b73565b610ce55760405162461bcd60e51b81526004016107f4906124d3565b6060600b805461081f90612639565b6060816119925750506040805180820190915260018152600360fc1b602082015290565b8160005b81156119bc57806119a681612674565b91506119b59050600a836125c3565b9150611996565b60008167ffffffffffffffff8111156119e557634e487b7160e01b600052604160045260246000fd5b6040519080825280601f01601f191660200182016040528015611a0f576020820181803683370190505b5090505b841561164257611a246001836125f6565b9150611a31600a8661268f565b611a3c9060306125ab565b60f81b818381518110611a5f57634e487b7160e01b600052603260045260246000fd5b60200101906001600160f81b031916908160001a905350611a81600a866125c3565b9450611a13565b6001600160a01b038316611ae357611ade81600880546000838152600960205260408120829055600182018355919091527ff3f7a9fe364faab93b216da50a3214154f22a0a2b415b23a84c8169e8b636ee30155565b611b06565b816001600160a01b0316836001600160a01b031614611b0657611b068382611c80565b6001600160a01b038216611b1d57610a4881611d1d565b826001600160a01b0316826001600160a01b031614610a4857610a488282611df6565b611b4a8383611e3a565b611b576000848484611b73565b610a485760405162461bcd60e51b81526004016107f4906124d3565b60006001600160a01b0384163b15611c7557604051630a85bd0160e11b81526001600160a01b0385169063150b7a0290611bb790339089908890889060040161243f565b602060405180830381600087803b158015611bd157600080fd5b505af1925050508015611c01575060408051601f3d908101601f19168201909252611bfe918101906122d7565b60015b611c5b573d808015611c2f576040519150601f19603f3d011682016040523d82523d6000602084013e611c34565b606091505b508051611c535760405162461bcd60e51b81526004016107f4906124d3565b805181602001fd5b6001600160e01b031916630a85bd0160e11b149050611642565b506001949350505050565b60006001611c8d846110c6565b611c9791906125f6565b600083815260076020526040902054909150808214611cea576001600160a01b03841660009081526006602090815260408083208584528252808320548484528184208190558352600790915290208190555b5060009182526007602090815260408084208490556001600160a01b039094168352600681528383209183525290812055565b600854600090611d2f906001906125f6565b60008381526009602052604081205460088054939450909284908110611d6557634e487b7160e01b600052603260045260246000fd5b906000526020600020015490508060088381548110611d9457634e487b7160e01b600052603260045260246000fd5b6000918252602080832090910192909255828152600990915260408082208490558582528120556008805480611dda57634e487b7160e01b600052603160045260246000fd5b6001900381819060005260206000200160009055905550505050565b6000611e01836110c6565b6001600160a01b039093166000908152600660209081526040808320868452825280832085905593825260079052919091209190915550565b6001600160a01b038216611e905760405162461bcd60e51b815260206004820181905260248201527f4552433732313a206d696e7420746f20746865207a65726f206164647265737360448201526064016107f4565b6000818152600260205260409020546001600160a01b031615611ef55760405162461bcd60e51b815260206004820152601c60248201527f4552433732313a20746f6b656e20616c7265616479206d696e7465640000000060448201526064016107f4565b611f0160008383611a88565b6001600160a01b0382166000908152600360205260408120805460019290611f2a9084906125ab565b909155505060008181526002602052604080822080546001600160a01b0319166001600160a01b03861690811790915590518392907fddf252ad1be2c89b69c2b068fc378daa952ba7f163c4a11628f55a4df523b3ef908290a45050565b828054611f9490612639565b90600052602060002090601f016020900481019282611fb65760008555611ffc565b82601f10611fcf57805160ff1916838001178555611ffc565b82800160010185558215611ffc579182015b82811115611ffc578251825591602001919060010190611fe1565b5061200892915061200c565b5090565b5b80821115612008576000815560010161200d565b600067ffffffffffffffff8084111561203c5761203c6126cf565b604051601f8501601f19908116603f01168101908282118183101715612064576120646126cf565b8160405280935085815286868601111561207d57600080fd5b858560208301376000602087830101525050509392505050565b80356001600160a01b03811681146120ae57600080fd5b919050565b803580151581146120ae57600080fd5b6000602082840312156120d4578081fd5b61135f82612097565b600080604083850312156120ef578081fd5b6120f883612097565b915061210660208401612097565b90509250929050565b600080600060608486031215612123578081fd5b61212c84612097565b925061213a60208501612097565b9150604084013590509250925092565b6000806000806080858703121561215f578081fd5b61216885612097565b935061217660208601612097565b925060408501359150606085013567ffffffffffffffff811115612198578182fd5b8501601f810187136121a8578182fd5b6121b787823560208401612021565b91505092959194509250565b600080604083850312156121d5578182fd5b6121de83612097565b9150612106602084016120b3565b600080604083850312156121fe578182fd5b61220783612097565b946020939093013593505050565b6000610c80808385031215612228578182fd5b83601f840112612236578182fd5b60405181810181811067ffffffffffffffff82111715612258576122586126cf565b604052808483810187101561226b578485fd5b8493505b60648410156122965761228181612097565b8252600193909301926020918201910161226f565b509095945050505050565b6000602082840312156122b2578081fd5b61135f826120b3565b6000602082840312156122cc578081fd5b813561135f816126e5565b6000602082840312156122e8578081fd5b815161135f816126e5565b600060208284031215612304578081fd5b813567ffffffffffffffff81111561231a578182fd5b8201601f8101841361232a578182fd5b61164284823560208401612021565b60006020828403121561234a578081fd5b5035919050565b6000815180845261236981602086016020860161260d565b601f01601f19169290920160200192915050565b6000845160206123908285838a0161260d565b8551918401916123a38184848a0161260d565b85549201918390600181811c90808316806123bf57607f831692505b8583108114156123dd57634e487b7160e01b88526022600452602488fd5b8080156123f157600181146124025761242e565b60ff1985168852838801955061242e565b60008b815260209020895b858110156124265781548a82015290840190880161240d565b505083880195505b50939b9a5050505050505050505050565b6001600160a01b038581168252841660208201526040810183905260806060820181905260009061247290830184612351565b9695505050505050565b6020808252825182820181905260009190848201906040850190845b818110156124b457835183529284019291840191600101612498565b50909695505050505050565b60208152600061135f6020830184612351565b60208082526032908201527f4552433732313a207472616e7366657220746f206e6f6e20455243373231526560408201527131b2b4bb32b91034b6b83632b6b2b73a32b960711b606082015260800190565b6020808252818101527f4f776e61626c653a2063616c6c6572206973206e6f7420746865206f776e6572604082015260600190565b60208082526031908201527f4552433732313a207472616e736665722063616c6c6572206973206e6f74206f6040820152701ddb995c881b9bdc88185c1c1c9bdd9959607a1b606082015260800190565b600082198211156125be576125be6126a3565b500190565b6000826125d2576125d26126b9565b500490565b60008160001904831182151516156125f1576125f16126a3565b500290565b600082821015612608576126086126a3565b500390565b60005b83811015612628578181015183820152602001612610565b83811115610ce55750506000910152565b600181811c9082168061264d57607f821691505b6020821081141561266e57634e487b7160e01b600052602260045260246000fd5b50919050565b6000600019821415612688576126886126a3565b5060010190565b60008261269e5761269e6126b9565b500690565b634e487b7160e01b600052601160045260246000fd5b634e487b7160e01b600052601260045260246000fd5b634e487b7160e01b600052604160045260246000fd5b6001600160e01b031981168114610bde57600080fdfea26469706673582212207b6422884a1754819d379ac2e6d555de92e9d1ceebf031c5c30b39cf4ca7437064736f6c634300080400334552433732313a207472616e7366657220746f206e6f6e204552433732315265",
  "linkReferences": {},
  "deployedLinkReferences": {}
}