{
  "_format": "hh-sol-artifact-1",
  "contractName": "DWNFTStaking",
  "sourceName": "contracts/DWNFTStaking.sol",
  "abi": [
    {
      "inputs": [
        {
          "internalType": "address",
          "name": "_rewardsToken",
          "type": "address"
        },
        {
          "internalType": "address",
          "name": "_stakingToken",
          "type": "address"
        }
      ],
      "stateMutability": "nonpayable",
      "type": "constructor"
    },
    {
      "anonymous": false,
      "inputs": [
        {
          "indexed": true,
          "internalType": "address",
          "name": "previousOwner",
          "type": "address"
        },
        {
          "indexed": true,
          "internalType": "address",
          "name": "newOwner",
          "type": "address"
        }
      ],
      "name": "OwnershipTransferred",
      "type": "event"
    },
    {
      "anonymous": false,
      "inputs": [
        {
          "indexed": true,
          "internalType": "address",
          "name": "user",
          "type": "address"
        },
        {
          "indexed": false,
          "internalType": "uint256",
          "name": "reward",
          "type": "uint256"
        }
      ],
      "name": "RewardPaid",
      "type": "event"
    },
    {
      "anonymous": false,
      "inputs": [
        {
          "indexed": false,
          "internalType": "address",
          "name": "owner",
          "type": "address"
        },
        {
          "indexed": false,
          "internalType": "uint256",
          "name": "amount",
          "type": "uint256"
        }
      ],
      "name": "Staked",
      "type": "event"
    },
    {
      "anonymous": false,
      "inputs": [
        {
          "indexed": false,
          "internalType": "address",
          "name": "owner",
          "type": "address"
        },
        {
          "indexed": false,
          "internalType": "uint256",
          "name": "amount",
          "type": "uint256"
        }
      ],
      "name": "Unstaked",
      "type": "event"
    },
    {
      "inputs": [],
      "name": "balanceOfRewardToken",
      "outputs": [
        {
          "internalType": "uint256",
          "name": "",
          "type": "uint256"
        }
      ],
      "stateMutability": "view",
      "type": "function"
    },
    {
      "inputs": [
        {
          "internalType": "address",
          "name": "_user",
          "type": "address"
        }
      ],
      "name": "calculateRewardAmount",
      "outputs": [
        {
          "internalType": "uint256",
          "name": "",
          "type": "uint256"
        }
      ],
      "stateMutability": "view",
      "type": "function"
    },
    {
      "inputs": [],
      "name": "getBalanceRewardToken",
      "outputs": [
        {
          "internalType": "uint256",
          "name": "",
          "type": "uint256"
        }
      ],
      "stateMutability": "view",
      "type": "function"
    },
    {
      "inputs": [
        {
          "internalType": "address",
          "name": "_user",
          "type": "address"
        }
      ],
      "name": "getStakedTokens",
      "outputs": [
        {
          "internalType": "uint256[]",
          "name": "",
          "type": "uint256[]"
        }
      ],
      "stateMutability": "view",
      "type": "function"
    },
    {
      "inputs": [],
      "name": "isAdmin",
      "outputs": [
        {
          "internalType": "bool",
          "name": "",
          "type": "bool"
        }
      ],
      "stateMutability": "view",
      "type": "function"
    },
    {
      "inputs": [],
      "name": "isHuntingSeason",
      "outputs": [
        {
          "internalType": "bool",
          "name": "",
          "type": "bool"
        }
      ],
      "stateMutability": "view",
      "type": "function"
    },
    {
      "inputs": [],
      "name": "owner",
      "outputs": [
        {
          "internalType": "address",
          "name": "",
          "type": "address"
        }
      ],
      "stateMutability": "view",
      "type": "function"
    },
    {
      "inputs": [
        {
          "internalType": "enum DWNFTStaking.Rarity_Level",
          "name": "",
          "type": "uint8"
        }
      ],
      "name": "rarityLevelRate",
      "outputs": [
        {
          "internalType": "uint256",
          "name": "",
          "type": "uint256"
        }
      ],
      "stateMutability": "view",
      "type": "function"
    },
    {
      "inputs": [],
      "name": "renounceOwnership",
      "outputs": [],
      "stateMutability": "nonpayable",
      "type": "function"
    },
    {
      "inputs": [],
      "name": "rewardsToken",
      "outputs": [
        {
          "internalType": "contract IERC20",
          "name": "",
          "type": "address"
        }
      ],
      "stateMutability": "view",
      "type": "function"
    },
    {
      "inputs": [
        {
          "internalType": "uint256",
          "name": "_tokenId",
          "type": "uint256"
        },
        {
          "internalType": "enum DWNFTStaking.Rarity_Level",
          "name": "level",
          "type": "uint8"
        }
      ],
      "name": "setRarityLevel",
      "outputs": [],
      "stateMutability": "nonpayable",
      "type": "function"
    },
    {
      "inputs": [
        {
          "internalType": "enum DWNFTStaking.Rarity_Level",
          "name": "_rarity_level",
          "type": "uint8"
        },
        {
          "internalType": "uint256",
          "name": "persent",
          "type": "uint256"
        }
      ],
      "name": "setTokenRoyalty",
      "outputs": [],
      "stateMutability": "nonpayable",
      "type": "function"
    },
    {
      "inputs": [
        {
          "internalType": "uint256",
          "name": "_tokenId",
          "type": "uint256"
        }
      ],
      "name": "stake",
      "outputs": [],
      "stateMutability": "nonpayable",
      "type": "function"
    },
    {
      "inputs": [
        {
          "internalType": "uint256[]",
          "name": "_tokenIds",
          "type": "uint256[]"
        }
      ],
      "name": "stakeBatch",
      "outputs": [],
      "stateMutability": "nonpayable",
      "type": "function"
    },
    {
      "inputs": [
        {
          "internalType": "address",
          "name": "",
          "type": "address"
        }
      ],
      "name": "stakers",
      "outputs": [
        {
          "internalType": "uint256",
          "name": "commonTokenCnt",
          "type": "uint256"
        },
        {
          "internalType": "uint256",
          "name": "uncommonTokenCnt",
          "type": "uint256"
        },
        {
          "internalType": "uint256",
          "name": "rareTokenCnt",
          "type": "uint256"
        },
        {
          "internalType": "uint256",
          "name": "epicTokenCnt",
          "type": "uint256"
        },
        {
          "internalType": "uint256",
          "name": "legendaryTokenCnt",
          "type": "uint256"
        },
        {
          "internalType": "bool",
          "name": "rewarded",
          "type": "bool"
        }
      ],
      "stateMutability": "view",
      "type": "function"
    },
    {
      "inputs": [],
      "name": "stakingToken",
      "outputs": [
        {
          "internalType": "contract IERC721Enumerable",
          "name": "",
          "type": "address"
        }
      ],
      "stateMutability": "view",
      "type": "function"
    },
    {
      "inputs": [],
      "name": "startHuntingSeason",
      "outputs": [],
      "stateMutability": "nonpayable",
      "type": "function"
    },
    {
      "inputs": [],
      "name": "timeOutHuntingSeason",
      "outputs": [],
      "stateMutability": "nonpayable",
      "type": "function"
    },
    {
      "inputs": [
        {
          "internalType": "uint256",
          "name": "",
          "type": "uint256"
        }
      ],
      "name": "tokenRoyalty",
      "outputs": [
        {
          "internalType": "address",
          "name": "owner",
          "type": "address"
        },
        {
          "internalType": "enum DWNFTStaking.Rarity_Level",
          "name": "rarityLevel",
          "type": "uint8"
        },
        {
          "internalType": "bool",
          "name": "isStaking",
          "type": "bool"
        }
      ],
      "stateMutability": "view",
      "type": "function"
    },
    {
      "inputs": [
        {
          "internalType": "address",
          "name": "newOwner",
          "type": "address"
        }
      ],
      "name": "transferOwnership",
      "outputs": [],
      "stateMutability": "nonpayable",
      "type": "function"
    },
    {
      "inputs": [
        {
          "internalType": "uint256",
          "name": "_tokenId",
          "type": "uint256"
        }
      ],
      "name": "unstake",
      "outputs": [],
      "stateMutability": "nonpayable",
      "type": "function"
    },
    {
      "inputs": [
        {
          "internalType": "uint256[]",
          "name": "tokenIds",
          "type": "uint256[]"
        }
      ],
      "name": "unstakeBatch",
      "outputs": [],
      "stateMutability": "nonpayable",
      "type": "function"
    }
  ],
  "bytecode": "0x60806040523480156200001157600080fd5b5060405162001ff538038062001ff5833981016040819052620000349162000292565b6200003f336200017d565b600180546001600160a01b038085166001600160a01b031992831617909255600280549284169290911691909117905562000133600b60205260147fdf7de25b7f1fd6d0b5205f0e18f1f35bd7b8d84cce336588d184533ce43a6f768190557f72c6bfb7988af3a1efa6568f02a999bc52252641c659d85961ca3d372b57d5cf8190557fa50eece07c7db1631545c0069bd8f5f54d5935e215d59097edf258a44ba916348190557f64c15cc42be7899b001f818cf4433057002112c418d1d3a67cd5cb453051d33e556004600052600a7f12d0c11577e2f0950f57c455c117796550b79f444811db8ba2f69c57b646c78455565b6200017160646200015d604662000149620001cd565b6200025260201b62000e8b1790919060201c565b6200026760201b62000e9e1790919060201c565b600855506200032f9050565b600080546001600160a01b038381166001600160a01b0319831681178455604051919092169283917f8be0079c531659141344cd1fd0a4f28419497f9722a3daafe3b4186f6b6457e09190a35050565b6001546040516370a0823160e01b81523360048201526000916001600160a01b0316906370a082319060240160206040518083038186803b1580156200021257600080fd5b505afa15801562000227573d6000803e3d6000fd5b505050506040513d601f19601f820116820180604052508101906200024d9190620002c9565b905090565b600062000260828462000303565b9392505050565b6000620002608284620002e2565b80516001600160a01b03811681146200028d57600080fd5b919050565b60008060408385031215620002a5578182fd5b620002b08362000275565b9150620002c06020840162000275565b90509250929050565b600060208284031215620002db578081fd5b5051919050565b600082620002fe57634e487b7160e01b81526012600452602481fd5b500490565b60008160001904831182151516156200032a57634e487b7160e01b81526011600452602481fd5b500290565b611cb6806200033f6000396000f3fe608060405234801561001057600080fd5b50600436106101425760003560e01c80638da5cb5b116100b8578063bbf2eb611161007c578063bbf2eb611461033a578063d1af0c7d14610347578063dd429a7f1461035a578063e64a21f314610362578063ef39f11f14610375578063f2fde38b1461038857600080fd5b80638da5cb5b146102735780639168ae721461028457806397fc2934146102fc578063a694fc3a1461030f578063b6db75a01461032257600080fd5b8063415a52301161010a578063415a5230146101fd57806363c28db11461020557806365a5f9001461022557806370da302214610238578063715018a61461024057806372f702f31461024857600080fd5b80631ff4a4201461014757806320f7deff1461019e578063230f436d146101b55780632e17de78146101ca57806335a9d423146101dd575b600080fd5b61018661015536600461192c565b600c602052600090815260409020546001600160a01b0381169060ff600160a01b8204811691600160a81b90041683565b604051610195939291906119d2565b60405180910390f35b6101a760085481565b604051908152602001610195565b6101c86101c3366004611829565b61039b565b005b6101c86101d836600461192c565b6104df565b6101a76101eb3660046118e9565b600b6020526000908152604090205481565b6101c8610570565b6102186102133660046117f1565b6105a9565b6040516101959190611a16565b6101c8610233366004611903565b610615565b6101c861066e565b6101c86108c1565b60025461025b906001600160a01b031681565b6040516001600160a01b039091168152602001610195565b6000546001600160a01b031661025b565b6102cd6102923660046117f1565b600a60205260009081526040902060028101546003820154600483015460058401546006850154600790950154939492939192909160ff1686565b6040805196875260208701959095529385019290925260608401526080830152151560a082015260c001610195565b6101c861030a36600461195c565b6108f5565b6101c861031d36600461192c565b61093f565b61032a610a63565b6040519015158152602001610195565b60095461032a9060ff1681565b60015461025b906001600160a01b031681565b6101a7610a83565b6101c8610370366004611829565b610b04565b6101a76103833660046117f1565b610bab565b6101c86103963660046117f1565b610df3565b60095460ff166103c65760405162461bcd60e51b81526004016103bd90611afd565b60405180910390fd5b60005b81518110156104db5760025482516001600160a01b0390911690636352211e9084908490811061040957634e487b7160e01b600052603260045260246000fd5b60200260200101516040518263ffffffff1660e01b815260040161042f91815260200190565b60206040518083038186803b15801561044757600080fd5b505afa15801561045b573d6000803e3d6000fd5b505050506040513d601f19601f8201168201806040525081019061047f919061180d565b6001600160a01b0316336001600160a01b031614156104c9576104c9338383815181106104bc57634e487b7160e01b600052603260045260246000fd5b6020026020010151610eaa565b806104d381611c24565b9150506103c9565b5050565b6000818152600c60205260409020546001600160a01b031633146105635760405162461bcd60e51b815260206004820152603560248201527f44574e46545374616b696e672e756e7374616b653a2053656e646572206d75736044820152741d081a185d99481cdd185ad959081d1bdad95b9251605a1b60648201526084016103bd565b61056d33826111bc565b50565b6000546001600160a01b0316331461059a5760405162461bcd60e51b81526004016103bd90611b6a565b6009805460ff19166001179055565b6001600160a01b0381166000908152600a602090815260409182902080548351818402810184019094528084526060939283018282801561060957602002820191906000526020600020905b8154815260200190600101908083116105f5575b50505050509050919050565b80600b600084600481111561063a57634e487b7160e01b600052602160045260246000fd5b600481111561065957634e487b7160e01b600052602160045260246000fd5b81526020810191909152604001600020555050565b6000546001600160a01b031633146106985760405162461bcd60e51b81526004016103bd90611b6a565b60095460ff166106a457565b6106c260646106bc60466106b6610a83565b90610e8b565b90610e9e565b600855600254604080516318160ddd60e01b815290516000926001600160a01b0316916318160ddd916004808301926020929190829003018186803b15801561070a57600080fd5b505afa15801561071e573d6000803e3d6000fd5b505050506040513d601f19601f820116820180604052508101906107429190611944565b905060005b818110156107f8576000818152600c602052604090208054600160a81b900460ff168015610792575080546001600160a01b03166000908152600a602052604090206007015460ff16155b156107e55780546107ab906001600160a01b03166115e4565b60408051808201909152600e81526d031b630b4b6a932bbb0b932101d160951b602082015281546107e591906001600160a01b031661165a565b50806107f081611c24565b915050610747565b5060005b818110156108b2576000818152600c602052604090208054600160a81b900460ff161561089f5761088a6040518060400160405280600981526020016803ab739ba30b5b2b2160bd1b8152508260000160009054906101000a90046001600160a01b03166040518060400160405280600b81526020016a0103a37b5b2b734b21d10160ad1b8152508561169f565b805461089f906001600160a01b0316836111bc565b50806108aa81611c24565b9150506107fc565b50506009805460ff191690555b565b6000546001600160a01b031633146108eb5760405162461bcd60e51b81526004016103bd90611b6a565b6108bf60006116ee565b6000828152600c6020526040902080548290829060ff60a01b1916600160a01b83600481111561093557634e487b7160e01b600052602160045260246000fd5b0217905550505050565b60095460ff166109615760405162461bcd60e51b81526004016103bd90611afd565b6002546040516331a9108f60e11b8152600481018390526001600160a01b0390911690636352211e9060240160206040518083038186803b1580156109a557600080fd5b505afa1580156109b9573d6000803e3d6000fd5b505050506040513d601f19601f820116820180604052508101906109dd919061180d565b6001600160a01b0316336001600160a01b031614610a595760405162461bcd60e51b815260206004820152603360248201527f44574e46545374616b696e672e7374616b653a2053656e646572206d757374206044820152721899481d1a19481bdddb995c881bd988139195606a1b60648201526084016103bd565b61056d3382610eaa565b600080546001600160a01b0316331415610a7d5750600190565b50600090565b6001546040516370a0823160e01b81523360048201526000916001600160a01b0316906370a082319060240160206040518083038186803b158015610ac757600080fd5b505afa158015610adb573d6000803e3d6000fd5b505050506040513d601f19601f82011682018060405250810190610aff9190611944565b905090565b60005b81518110156104db57336001600160a01b0316600c6000848481518110610b3e57634e487b7160e01b600052603260045260246000fd5b6020908102919091018101518252810191909152604001600020546001600160a01b03161415610b9957610b9933838381518110610b8c57634e487b7160e01b600052603260045260246000fd5b60200260200101516111bc565b80610ba381611c24565b915050610b07565b600080600080600080600060085411610c2e576040805162461bcd60e51b81526020600482015260248101919091527f44574e46545374616b696e672e63616c63756c617465526577617264416d6f7560448201527f6e743a206c6f772062616c616e6365206f66207265776172647320746f6b656e60648201526084016103bd565b60035415610c8b57600354610c88906106bc606481600b6000805b6004811115610c6857634e487b7160e01b600052602160045260246000fd5b815260200190815260200160002054600854610e8b90919063ffffffff16565b94505b60045415610cae57600454610cab906106bc606481600b60006001610c49565b93505b60055415610cd157600554610cce906106bc606481600b60006002610c49565b92505b60055415610cf457600654610cf1906106bc606481600b60006003610c49565b91505b60055415610d1757600754610d14906106bc606481600b60006004610c49565b90505b6001600160a01b0387166000908152600a602052604081206006810154909190610d419084610e8b565b6005830154610d509086610e8b565b6004840154610d5f9088610e8b565b6003850154610d6e908a610e8b565b6002860154610d7d908c610e8b565b610d879190611b9f565b610d919190611b9f565b610d9b9190611b9f565b610da59190611b9f565b9050610de76040518060400160405280601a81526020017f52657761726420616d6f756e7420666f72204164726573733a20000000000000815250828b61173e565b98975050505050505050565b6000546001600160a01b03163314610e1d5760405162461bcd60e51b81526004016103bd90611b6a565b6001600160a01b038116610e825760405162461bcd60e51b815260206004820152602660248201527f4f776e61626c653a206e6577206f776e657220697320746865207a65726f206160448201526564647265737360d01b60648201526084016103bd565b61056d816116ee565b6000610e978284611bd7565b9392505050565b6000610e978284611bb7565b6000818152600c6020818152604080842080546001600160a01b038816808752600a855292862087875294909352600161ff0160a01b031990921617600160a81b17815590918154600160a01b900460ff166004811115610f1b57634e487b7160e01b600052602160045260246000fd5b1415610f4e57600282018054906000610f3383611c24565b909155505060038054906000610f4883611c24565b91905055505b60018154600160a01b900460ff166004811115610f7b57634e487b7160e01b600052602160045260246000fd5b1415610fae57600382018054906000610f9383611c24565b909155505060048054906000610fa883611c24565b91905055505b60028154600160a01b900460ff166004811115610fdb57634e487b7160e01b600052602160045260246000fd5b141561100e57600482018054906000610ff383611c24565b90915550506005805490600061100883611c24565b91905055505b60038154600160a01b900460ff16600481111561103b57634e487b7160e01b600052602160045260246000fd5b141561106e5760058201805490600061105383611c24565b90915550506006805490600061106883611c24565b91905055505b60048154600160a01b900460ff16600481111561109b57634e487b7160e01b600052602160045260246000fd5b14156110ce576006820180549060006110b383611c24565b9091555050600780549060006110c883611c24565b91905055505b81546001818101845560008481526020902090910184905582546110f29190611bf6565b6000848152600184016020526040908190209190915560025490516323b872dd60e01b81526001600160a01b03868116600483015230602483015260448201869052909116906323b872dd90606401600060405180830381600087803b15801561115b57600080fd5b505af115801561116f573d6000803e3d6000fd5b5050604080516001600160a01b0388168152602081018790527f9e71bc8eea02a63969f509818f2dafb9254532904319f9dbda79b67bd34a5f3d935001905060405180910390a150505050565b6001600160a01b0382166000908152600a60209081526040808320848452600c909252822090918154600160a01b900460ff16600481111561120e57634e487b7160e01b600052602160045260246000fd5b14156112415760028201805490600061122683611c0d565b90915550506003805490600061123b83611c0d565b91905055505b60018154600160a01b900460ff16600481111561126e57634e487b7160e01b600052602160045260246000fd5b14156112a15760038201805490600061128683611c0d565b90915550506004805490600061129b83611c0d565b91905055505b60028154600160a01b900460ff1660048111156112ce57634e487b7160e01b600052602160045260246000fd5b1415611301576004820180549060006112e683611c0d565b9091555050600580549060006112fb83611c0d565b91905055505b60038154600160a01b900460ff16600481111561132e57634e487b7160e01b600052602160045260246000fd5b14156113615760058201805490600061134683611c0d565b90915550506006805490600061135b83611c0d565b91905055505b60048154600160a01b900460ff16600481111561138e57634e487b7160e01b600052602160045260246000fd5b14156113c1576006820180549060006113a683611c0d565b9091555050600780549060006113bb83611c0d565b91905055505b81546000906113d290600190611bf6565b905060008360000182815481106113f957634e487b7160e01b600052603260045260246000fd5b9060005260206000200154905060008460010160008781526020019081526020016000205490508185600001828154811061144457634e487b7160e01b600052603260045260246000fd5b600091825260208083209091019290925583815260018701909152604090208190558454156114b657845485908061148c57634e487b7160e01b600052603160045260246000fd5b60008281526020808220830160001990810183905590920190925587825260018701905260408120555b845461150f576001600160a01b0387166000908152600a60205260408120906114df82826117ab565b506000600282018190556003820181905560048201819055600582018190556006820155600701805460ff191690555b6000868152600c60205260409081902080546001600160b01b031916905560025490516323b872dd60e01b81523060048201526001600160a01b03898116602483015260448201899052909116906323b872dd90606401600060405180830381600087803b15801561158057600080fd5b505af1158015611594573d6000803e3d6000fd5b5050604080516001600160a01b038b168152602081018a90527f0f5bb82176feb1b5e747e28471aa92156a04d9f3ab9f45f28e2d704232b93f75935001905060405180910390a150505050505050565b60006115ef82610bab565b6001600160a01b0383166000818152600a60205260409081902060078101805460ff191660011790559051929350917fe2403640ba68fed3a2f88b7557551d1993f84b99bb10ff833f0cf8db0c5e04869061164d9085815260200190565b60405180910390a2505050565b6104db8282604051602401611670929190611a5a565b60408051601f198184030181529190526020810180516001600160e01b031663319af33360e01b17905261178a565b6116e8848484846040516024016116b99493929190611a84565b60408051601f198184030181529190526020810180516001600160e01b0316638f624be960e01b17905261178a565b50505050565b600080546001600160a01b038381166001600160a01b0319831681178455604051919092169283917f8be0079c531659141344cd1fd0a4f28419497f9722a3daafe3b4186f6b6457e09190a35050565b61178583838360405160240161175693929190611aca565b60408051601f198184030181529190526020810180516001600160e01b031663e3849f7960e01b17905261178a565b505050565b80516a636f6e736f6c652e6c6f67602083016000808483855afa5050505050565b508054600082559060005260206000209081019061056d91905b808211156117d957600081556001016117c5565b5090565b8035600581106117ec57600080fd5b919050565b600060208284031215611802578081fd5b8135610e9781611c6b565b60006020828403121561181e578081fd5b8151610e9781611c6b565b6000602080838503121561183b578182fd5b823567ffffffffffffffff80821115611852578384fd5b818501915085601f830112611865578384fd5b81358181111561187757611877611c55565b8060051b604051601f19603f8301168101818110858211171561189c5761189c611c55565b604052828152858101935084860182860187018a10156118ba578788fd5b8795505b838610156118dc5780358552600195909501949386019386016118be565b5098975050505050505050565b6000602082840312156118fa578081fd5b610e97826117dd565b60008060408385031215611915578081fd5b61191e836117dd565b946020939093013593505050565b60006020828403121561193d578081fd5b5035919050565b600060208284031215611955578081fd5b5051919050565b6000806040838503121561196e578182fd5b8235915061197e602084016117dd565b90509250929050565b60008151808452815b818110156119ac57602081850181015186830182015201611990565b818111156119bd5782602083870101525b50601f01601f19169290920160200192915050565b6001600160a01b03841681526060810160058410611a0057634e487b7160e01b600052602160045260246000fd5b8360208301528215156040830152949350505050565b6020808252825182820181905260009190848201906040850190845b81811015611a4e57835183529284019291840191600101611a32565b50909695505050505050565b604081526000611a6d6040830185611987565b905060018060a01b03831660208301529392505050565b608081526000611a976080830187611987565b6001600160a01b03861660208401528281036040840152611ab88186611987565b91505082606083015295945050505050565b606081526000611add6060830186611987565b6020830194909452506001600160a01b0391909116604090910152919050565b60208082526047908201527f44574e46545374616b696e672e7374616b653a6e6f772069742773206e6f742060408201527f68756e7420736561736f6e2c20736f2063616e2774207374616b6520646f706560608201526620776f6c76657360c81b608082015260a00190565b6020808252818101527f4f776e61626c653a2063616c6c6572206973206e6f7420746865206f776e6572604082015260600190565b60008219821115611bb257611bb2611c3f565b500190565b600082611bd257634e487b7160e01b81526012600452602481fd5b500490565b6000816000190483118215151615611bf157611bf1611c3f565b500290565b600082821015611c0857611c08611c3f565b500390565b600081611c1c57611c1c611c3f565b506000190190565b6000600019821415611c3857611c38611c3f565b5060010190565b634e487b7160e01b600052601160045260246000fd5b634e487b7160e01b600052604160045260246000fd5b6001600160a01b038116811461056d57600080fdfea2646970667358221220a493dbf337f8da447d175af1f7816c6a7d0939f86c66d80d28b9928798d2663a64736f6c63430008040033",
  "linkReferences": {},
  "deployedLinkReferences": {}
}