{
  "_format": "hh-sol-artifact-1",
  "contractName": "LoxarToken",
  "sourceName": "contracts/LoxarToken.sol",
  "abi": [
    {
      "inputs": [],
      "stateMutability": "nonpayable",
      "type": "constructor"
    },
    {
      "anonymous": false,
      "inputs": [
        {
          "indexed": true,
          "internalType": "address",
          "name": "owner",
          "type": "address"
        },
        {
          "indexed": true,
          "internalType": "address",
          "name": "spender",
          "type": "address"
        },
        {
          "indexed": false,
          "internalType": "uint256",
          "name": "value",
          "type": "uint256"
        }
      ],
      "name": "Approval",
      "type": "event"
    },
    {
      "anonymous": false,
      "inputs": [
        {
          "indexed": false,
          "internalType": "uint256",
          "name": "amount",
          "type": "uint256"
        }
      ],
      "name": "Bought",
      "type": "event"
    },
    {
      "anonymous": false,
      "inputs": [
        {
          "indexed": false,
          "internalType": "uint256",
          "name": "amount",
          "type": "uint256"
        }
      ],
      "name": "Sold",
      "type": "event"
    },
    {
      "anonymous": false,
      "inputs": [
        {
          "indexed": true,
          "internalType": "address",
          "name": "from",
          "type": "address"
        },
        {
          "indexed": true,
          "internalType": "address",
          "name": "to",
          "type": "address"
        },
        {
          "indexed": false,
          "internalType": "uint256",
          "name": "value",
          "type": "uint256"
        }
      ],
      "name": "Transfer",
      "type": "event"
    },
    {
      "inputs": [],
      "name": "DECIMALS",
      "outputs": [
        {
          "internalType": "uint8",
          "name": "",
          "type": "uint8"
        }
      ],
      "stateMutability": "view",
      "type": "function"
    },
    {
      "inputs": [],
      "name": "MAX_BUY_AMOUNT",
      "outputs": [
        {
          "internalType": "uint256",
          "name": "",
          "type": "uint256"
        }
      ],
      "stateMutability": "view",
      "type": "function"
    },
    {
      "inputs": [],
      "name": "MAX_TOTAL_SUPPLY",
      "outputs": [
        {
          "internalType": "uint256",
          "name": "",
          "type": "uint256"
        }
      ],
      "stateMutability": "view",
      "type": "function"
    },
    {
      "inputs": [],
      "name": "NAME",
      "outputs": [
        {
          "internalType": "string",
          "name": "",
          "type": "string"
        }
      ],
      "stateMutability": "view",
      "type": "function"
    },
    {
      "inputs": [],
      "name": "SYMBOL",
      "outputs": [
        {
          "internalType": "string",
          "name": "",
          "type": "string"
        }
      ],
      "stateMutability": "view",
      "type": "function"
    },
    {
      "inputs": [
        {
          "internalType": "address",
          "name": "owner",
          "type": "address"
        },
        {
          "internalType": "address",
          "name": "spender",
          "type": "address"
        }
      ],
      "name": "allowance",
      "outputs": [
        {
          "internalType": "uint256",
          "name": "",
          "type": "uint256"
        }
      ],
      "stateMutability": "view",
      "type": "function"
    },
    {
      "inputs": [
        {
          "internalType": "address",
          "name": "spender",
          "type": "address"
        },
        {
          "internalType": "uint256",
          "name": "amount",
          "type": "uint256"
        }
      ],
      "name": "approve",
      "outputs": [
        {
          "internalType": "bool",
          "name": "",
          "type": "bool"
        }
      ],
      "stateMutability": "nonpayable",
      "type": "function"
    },
    {
      "inputs": [
        {
          "internalType": "address",
          "name": "account",
          "type": "address"
        }
      ],
      "name": "balanceOf",
      "outputs": [
        {
          "internalType": "uint256",
          "name": "",
          "type": "uint256"
        }
      ],
      "stateMutability": "view",
      "type": "function"
    },
    {
      "inputs": [
        {
          "internalType": "uint256",
          "name": "amount",
          "type": "uint256"
        }
      ],
      "name": "burn",
      "outputs": [],
      "stateMutability": "nonpayable",
      "type": "function"
    },
    {
      "inputs": [
        {
          "internalType": "address",
          "name": "account",
          "type": "address"
        },
        {
          "internalType": "uint256",
          "name": "amount",
          "type": "uint256"
        }
      ],
      "name": "burnFrom",
      "outputs": [],
      "stateMutability": "nonpayable",
      "type": "function"
    },
    {
      "inputs": [
        {
          "internalType": "address",
          "name": "from",
          "type": "address"
        },
        {
          "internalType": "uint256",
          "name": "amount",
          "type": "uint256"
        }
      ],
      "name": "buyToken",
      "outputs": [],
      "stateMutability": "payable",
      "type": "function"
    },
    {
      "inputs": [],
      "name": "decimals",
      "outputs": [
        {
          "internalType": "uint8",
          "name": "",
          "type": "uint8"
        }
      ],
      "stateMutability": "view",
      "type": "function"
    },
    {
      "inputs": [
        {
          "internalType": "address",
          "name": "spender",
          "type": "address"
        },
        {
          "internalType": "uint256",
          "name": "subtractedValue",
          "type": "uint256"
        }
      ],
      "name": "decreaseAllowance",
      "outputs": [
        {
          "internalType": "bool",
          "name": "",
          "type": "bool"
        }
      ],
      "stateMutability": "nonpayable",
      "type": "function"
    },
    {
      "inputs": [
        {
          "internalType": "address",
          "name": "spender",
          "type": "address"
        },
        {
          "internalType": "uint256",
          "name": "addedValue",
          "type": "uint256"
        }
      ],
      "name": "increaseAllowance",
      "outputs": [
        {
          "internalType": "bool",
          "name": "",
          "type": "bool"
        }
      ],
      "stateMutability": "nonpayable",
      "type": "function"
    },
    {
      "inputs": [
        {
          "internalType": "address",
          "name": "to",
          "type": "address"
        },
        {
          "internalType": "uint256",
          "name": "value",
          "type": "uint256"
        }
      ],
      "name": "mint",
      "outputs": [
        {
          "internalType": "bool",
          "name": "",
          "type": "bool"
        }
      ],
      "stateMutability": "payable",
      "type": "function"
    },
    {
      "inputs": [
        {
          "internalType": "address",
          "name": "to",
          "type": "address"
        },
        {
          "internalType": "uint256",
          "name": "value",
          "type": "uint256"
        }
      ],
      "name": "mintFromGame",
      "outputs": [
        {
          "internalType": "bool",
          "name": "",
          "type": "bool"
        }
      ],
      "stateMutability": "payable",
      "type": "function"
    },
    {
      "inputs": [],
      "name": "name",
      "outputs": [
        {
          "internalType": "string",
          "name": "",
          "type": "string"
        }
      ],
      "stateMutability": "view",
      "type": "function"
    },
    {
      "inputs": [
        {
          "internalType": "address",
          "name": "to",
          "type": "address"
        },
        {
          "internalType": "uint256",
          "name": "amount",
          "type": "uint256"
        }
      ],
      "name": "sellToken",
      "outputs": [],
      "stateMutability": "payable",
      "type": "function"
    },
    {
      "inputs": [],
      "name": "symbol",
      "outputs": [
        {
          "internalType": "string",
          "name": "",
          "type": "string"
        }
      ],
      "stateMutability": "view",
      "type": "function"
    },
    {
      "inputs": [],
      "name": "totalSupply",
      "outputs": [
        {
          "internalType": "uint256",
          "name": "",
          "type": "uint256"
        }
      ],
      "stateMutability": "view",
      "type": "function"
    },
    {
      "inputs": [
        {
          "internalType": "address",
          "name": "to",
          "type": "address"
        },
        {
          "internalType": "uint256",
          "name": "amount",
          "type": "uint256"
        }
      ],
      "name": "transfer",
      "outputs": [
        {
          "internalType": "bool",
          "name": "",
          "type": "bool"
        }
      ],
      "stateMutability": "nonpayable",
      "type": "function"
    },
    {
      "inputs": [
        {
          "internalType": "address",
          "name": "from",
          "type": "address"
        },
        {
          "internalType": "address",
          "name": "to",
          "type": "address"
        },
        {
          "internalType": "uint256",
          "name": "amount",
          "type": "uint256"
        }
      ],
      "name": "transferFrom",
      "outputs": [
        {
          "internalType": "bool",
          "name": "",
          "type": "bool"
        }
      ],
      "stateMutability": "nonpayable",
      "type": "function"
    }
  ],
  "bytecode": "0x60806040523480156200001157600080fd5b50604080518082018252600d81526c022a921969918102a27a5a2a71609d1b602080830191825283518085019094526007845266524f53452d445760c81b908401528151919291620000669160039162000434565b5080516200007c90600490602084019062000434565b50620000a89150339050620000946012600a6200059c565b620000a2906103e862000667565b620000ae565b620006dc565b6001600160a01b0382166200010a5760405162461bcd60e51b815260206004820152601f60248201527f45524332303a206d696e7420746f20746865207a65726f20616464726573730060448201526064015b60405180910390fd5b6200011860008383620001c2565b80600260008282546200012c919062000538565b90915550506001600160a01b038216600090815260208190526040812080548392906200015b90849062000538565b90915550506040518181526001600160a01b038316906000907fddf252ad1be2c89b69c2b068fc378daa952ba7f163c4a11628f55a4df523b3ef9060200160405180910390a3506001600160a01b03166000908152600560205260409020429055565b5050565b62000202604051806040016040528060118152602001700313637b1b5973a34b6b2b9ba30b6b81d1607d1b81525042620003c660201b620007fa1760201c565b806200020d60025490565b62000219919062000538565b620002276012600a6200059c565b6200023690621e848062000667565b1015620002865760405162461bcd60e51b815260206004820152601960248201527f45524332303a204d617820737570706c79207265616368656400000000000000604482015260640162000101565b80620002956012600a6200059c565b620002a3906107d062000667565b1015620003195760405162461bcd60e51b815260206004820152603360248201527f45524332303a207472616e7366657220616d6f756e742065786365656473206d60448201527f61785f62757920616e64206d61785f73616c6500000000000000000000000000606482015260840162000101565b426200033a836001600160a01b031660009081526005602052604090205490565b62000349906201518062000538565b1115620003c1576040805162461bcd60e51b81526020600482015260248101919091527f45524332303a2063616e2774207472616e736665722c2062656361757365207360448201527f657420636f6f6c646f776e206f662032346873206265747765656e2062757973606482015260840162000101565b505050565b620001be8282604051602401620003df929190620004da565b60408051601f198184030181529190526020810180516001600160e01b039081166309710a9d60e41b179091526200041316565b80516a636f6e736f6c652e6c6f67602083016000808483855afa5050505050565b828054620004429062000689565b90600052602060002090601f016020900481019282620004665760008555620004b1565b82601f106200048157805160ff1916838001178555620004b1565b82800160010185558215620004b1579182015b82811115620004b157825182559160200191906001019062000494565b50620004bf929150620004c3565b5090565b5b80821115620004bf5760008155600101620004c4565b6040815260008351806040840152815b81811015620005095760208187018101516060868401015201620004ea565b818111156200051b5782606083860101525b50602083019390935250601f91909101601f191601606001919050565b600082198211156200054e576200054e620006c6565b500190565b600181815b8085111562000594578160001904821115620005785762000578620006c6565b808516156200058657918102915b93841c939080029062000558565b509250929050565b6000620005aa8383620005b1565b9392505050565b600082620005c25750600162000661565b81620005d15750600062000661565b8160018114620005ea5760028114620005f55762000615565b600191505062000661565b60ff841115620006095762000609620006c6565b50506001821b62000661565b5060208310610133831016604e8410600b84101617156200063a575081810a62000661565b62000646838362000553565b80600019048211156200065d576200065d620006c6565b0290505b92915050565b6000816000190483118215151615620006845762000684620006c6565b500290565b600181811c908216806200069e57607f821691505b60208210811415620006c057634e487b7160e01b600052602260045260246000fd5b50919050565b634e487b7160e01b600052601160045260246000fd5b61139880620006ec6000396000f3fe6080604052600436106101355760003560e01c806368f8fc10116100ab578063a3f4df7e1161006f578063a3f4df7e1461031f578063a457c2d714610358578063a9059cbb14610378578063dd62ed3e14610398578063f464e7db146103de578063f76f8d78146103f157600080fd5b806368f8fc101461028c57806370a082311461029f57806379cc6790146102d557806388d9f5ea146102f557806395d89b411461030a57600080fd5b80632f758b65116100fd5780632f758b65146101fb578063313ce5671461020e57806333039d3d14610222578063395093511461023757806340c10f191461025757806342966c681461026a57600080fd5b806306fdde031461013a578063095ea7b31461016557806318160ddd1461019557806323b872dd146101b45780632e0f2625146101d4575b600080fd5b34801561014657600080fd5b5061014f610424565b60405161015c91906111a3565b60405180910390f35b34801561017157600080fd5b50610185610180366004611117565b6104b6565b604051901515815260200161015c565b3480156101a157600080fd5b506002545b60405190815260200161015c565b3480156101c057600080fd5b506101856101cf3660046110dc565b6104d0565b3480156101e057600080fd5b506101e9601281565b60405160ff909116815260200161015c565b610185610209366004611117565b6104f4565b34801561021a57600080fd5b5060126101e9565b34801561022e57600080fd5b506101a6610536565b34801561024357600080fd5b50610185610252366004611117565b610552565b610185610265366004611117565b610591565b34801561027657600080fd5b5061028a610285366004611140565b6105a6565b005b61028a61029a366004611117565b6105b3565b3480156102ab57600080fd5b506101a66102ba366004611089565b6001600160a01b031660009081526020819052604090205490565b3480156102e157600080fd5b5061028a6102f0366004611117565b610616565b34801561030157600080fd5b506101a661062f565b34801561031657600080fd5b5061014f610647565b34801561032b57600080fd5b5061014f6040518060400160405280600d81526020016c022a921969918102a27a5a2a71609d1b81525081565b34801561036457600080fd5b50610185610373366004611117565b610656565b34801561038457600080fd5b50610185610393366004611117565b6106ed565b3480156103a457600080fd5b506101a66103b33660046110aa565b6001600160a01b03918216600090815260016020908152604080832093909416825291909152205490565b61028a6103ec366004611117565b6106fb565b3480156103fd57600080fd5b5061014f60405180604001604052806007815260200166524f53452d445760c81b81525081565b60606003805461043390611311565b80601f016020809104026020016040519081016040528092919081815260200182805461045f90611311565b80156104ac5780601f10610481576101008083540402835291602001916104ac565b820191906000526020600020905b81548152906001019060200180831161048f57829003601f168201915b5050505050905090565b6000336104c481858561083f565b60019150505b92915050565b6000336104de858285610963565b6104e98585856109f5565b506001949350505050565b60006105008383610be9565b6001600160a01b038316600090815260066020526040812080548492906105289084906111d8565b909155506001949350505050565b6105426012600a611233565b61054f90621e84806112db565b81565b3360008181526001602090815260408083206001600160a01b03871684529091528120549091906104c4908290869061058c9087906111d8565b61083f565b600061059d8383610be9565b50600192915050565b6105b03382610ced565b50565b336001600160a01b038316156105d3576105ce8382846109f5565b6105dd565b6105dd8183610be9565b6040518281527f4e08ba899977cf7d4c2964bce71c6b9a7ef76ee5166a4c1249a1e08016e33ef1906020015b60405180910390a1505050565b610621823383610963565b61062b8282610ced565b5050565b61063b6012600a611233565b61054f906107d06112db565b60606004805461043390611311565b3360008181526001602090815260408083206001600160a01b0387168452909152812054909190838110156106e05760405162461bcd60e51b815260206004820152602560248201527f45524332303a2064656372656173656420616c6c6f77616e63652062656c6f77604482015264207a65726f60d81b60648201526084015b60405180910390fd5b6104e9828686840361083f565b6000336104c48185856109f5565b6040805180820182526013815272039b2b63630b13632a130b630b731b2adae9d1606d1b60208083019190915233600081815260069092529290205461074191906107fa565b6001600160a01b0381166000908152600660205260409020548211156107bf5760405162461bcd60e51b815260206004820152602d60248201527f4c58523a207472616e7366657220616d6f756e7420657863656564732073656c60448201526c6c61626c652062616c616e636560981b60648201526084016106d7565b6107ca8184846109f5565b6040518281527f92f64ca637d023f354075a4be751b169c1a8a9ccb6d33cdd0cb352054399572790602001610609565b61062b82826040516024016108109291906111b6565b60408051601f198184030181529190526020810180516001600160e01b03166309710a9d60e41b179052610e78565b6001600160a01b0383166108a15760405162461bcd60e51b8152602060048201526024808201527f45524332303a20617070726f76652066726f6d20746865207a65726f206164646044820152637265737360e01b60648201526084016106d7565b6001600160a01b0382166109025760405162461bcd60e51b815260206004820152602260248201527f45524332303a20617070726f766520746f20746865207a65726f206164647265604482015261737360f01b60648201526084016106d7565b6001600160a01b0383811660008181526001602090815260408083209487168084529482529182902085905590518481527f8c5be1e5ebec7d5bd14f71427d1e84f3dd0314c0f7b2291e5b200ac8c7c3b925910160405180910390a3505050565b6001600160a01b0383811660009081526001602090815260408083209386168352929052205460001981146109ef57818110156109e25760405162461bcd60e51b815260206004820152601d60248201527f45524332303a20696e73756666696369656e7420616c6c6f77616e636500000060448201526064016106d7565b6109ef848484840361083f565b50505050565b6001600160a01b038316610a595760405162461bcd60e51b815260206004820152602560248201527f45524332303a207472616e736665722066726f6d20746865207a65726f206164604482015264647265737360d81b60648201526084016106d7565b6001600160a01b038216610abb5760405162461bcd60e51b815260206004820152602360248201527f45524332303a207472616e7366657220746f20746865207a65726f206164647260448201526265737360e81b60648201526084016106d7565b610ac6838383610e99565b6001600160a01b03831660009081526020819052604090205481811015610b3e5760405162461bcd60e51b815260206004820152602660248201527f45524332303a207472616e7366657220616d6f756e7420657863656564732062604482015265616c616e636560d01b60648201526084016106d7565b6001600160a01b03808516600090815260208190526040808220858503905591851681529081208054849290610b759084906111d8565b92505081905550826001600160a01b0316846001600160a01b03167fddf252ad1be2c89b69c2b068fc378daa952ba7f163c4a11628f55a4df523b3ef84604051610bc191815260200190565b60405180910390a36001600160a01b03831660009081526005602052604090204290556109ef565b6001600160a01b038216610c3f5760405162461bcd60e51b815260206004820152601f60248201527f45524332303a206d696e7420746f20746865207a65726f20616464726573730060448201526064016106d7565b610c4b60008383610e99565b8060026000828254610c5d91906111d8565b90915550506001600160a01b03821660009081526020819052604081208054839290610c8a9084906111d8565b90915550506040518181526001600160a01b038316906000907fddf252ad1be2c89b69c2b068fc378daa952ba7f163c4a11628f55a4df523b3ef9060200160405180910390a3506001600160a01b03166000908152600560205260409020429055565b6001600160a01b038216610d4d5760405162461bcd60e51b815260206004820152602160248201527f45524332303a206275726e2066726f6d20746865207a65726f206164647265736044820152607360f81b60648201526084016106d7565b610d5982600083610e99565b6001600160a01b03821660009081526020819052604090205481811015610dcd5760405162461bcd60e51b815260206004820152602260248201527f45524332303a206275726e20616d6f756e7420657863656564732062616c616e604482015261636560f01b60648201526084016106d7565b6001600160a01b0383166000908152602081905260408120838303905560028054849290610dfc9084906112fa565b90915550506040518281526000906001600160a01b038516907fddf252ad1be2c89b69c2b068fc378daa952ba7f163c4a11628f55a4df523b3ef9060200160405180910390a3600080526005602052427f05b8ccbb9d4d8fb16ea74ce3c29a41f1b461fbdaff4714a0d9a8eb05499746bc55505050565b505050565b80516a636f6e736f6c652e6c6f67602083016000808483855afa5050505050565b610ecc604051806040016040528060118152602001700313637b1b5973a34b6b2b9ba30b6b81d1607d1b815250426107fa565b80610ed660025490565b610ee091906111d8565b610eec6012600a611233565b610ef990621e84806112db565b1015610f475760405162461bcd60e51b815260206004820152601960248201527f45524332303a204d617820737570706c7920726561636865640000000000000060448201526064016106d7565b80610f546012600a611233565b610f60906107d06112db565b1015610fca5760405162461bcd60e51b815260206004820152603360248201527f45524332303a207472616e7366657220616d6f756e742065786365656473206d60448201527261785f62757920616e64206d61785f73616c6560681b60648201526084016106d7565b42610fea836001600160a01b031660009081526005602052604090205490565b610ff790620151806111d8565b1115610e73576040805162461bcd60e51b81526020600482015260248101919091527f45524332303a2063616e2774207472616e736665722c2062656361757365207360448201527f657420636f6f6c646f776e206f662032346873206265747765656e206275797360648201526084016106d7565b80356001600160a01b038116811461108457600080fd5b919050565b60006020828403121561109a578081fd5b6110a38261106d565b9392505050565b600080604083850312156110bc578081fd5b6110c58361106d565b91506110d36020840161106d565b90509250929050565b6000806000606084860312156110f0578081fd5b6110f98461106d565b92506111076020850161106d565b9150604084013590509250925092565b60008060408385031215611129578182fd5b6111328361106d565b946020939093013593505050565b600060208284031215611151578081fd5b5035919050565b60008151808452815b8181101561117d57602081850181015186830182015201611161565b8181111561118e5782602083870101525b50601f01601f19169290920160200192915050565b6020815260006110a36020830184611158565b6040815260006111c96040830185611158565b90508260208301529392505050565b600082198211156111eb576111eb61134c565b500190565b600181815b8085111561122b5781600019048211156112115761121161134c565b8085161561121e57918102915b93841c93908002906111f5565b509250929050565b60006110a38383600082611249575060016104ca565b81611256575060006104ca565b816001811461126c576002811461127657611292565b60019150506104ca565b60ff8411156112875761128761134c565b50506001821b6104ca565b5060208310610133831016604e8410600b84101617156112b5575081810a6104ca565b6112bf83836111f0565b80600019048211156112d3576112d361134c565b029392505050565b60008160001904831182151516156112f5576112f561134c565b500290565b60008282101561130c5761130c61134c565b500390565b600181811c9082168061132557607f821691505b6020821081141561134657634e487b7160e01b600052602260045260246000fd5b50919050565b634e487b7160e01b600052601160045260246000fdfea264697066735822122078cd779b1b9f3e707c47ea96fe023e4242fa5f1face9cd554e28ad9e89758cb664736f6c63430008040033",
  "linkReferences": {},
  "deployedLinkReferences": {}
}